:060000000C9432000C9488
:1000060000000C9400000C9400000C9400000C946A
:1000160000000C9400000C9400000C9400000C945A
:1000260000000C9400000C9400000C9400000C944A
:1000360000000C9400000C9400000C9400000C943A
:1000460000000C9400000C9400000C9400000100C9
:100056002D4E414E00000100600154000000F8944E
:10006600EE27ECBBF1E0FBBFEBBFE5BFF8E1F1BD6E
:10007600E1BD8DE0A2E0BB27ED938A95E9F780E02C
:1000860094E0A0E6ED930197E9F7ECE5F0E08591C1
:100096009591009761F0A591B59105901590BF01D6
:1000A600F00105900D920197E1F7FB01F0CFEFE526
:1000B600EDBFE4E0EEBFC0E6D1E00C946200E0E8FC
:1000C600F5E260E070E00E946601E8E0EA931DD088
:1000D6008D9AE3E8EFBDE2E0EEBDE0E0F0E0FBBDC7
:1000E600EABDE0E4E7B9E5ECE6B952D0E23559F409
:1000F600369A3699FECF04B115B11A930A9361D098
:10010600EAE0EA9349D0F1CFFFCF1A930A93AB8185
:10011600BC818D819E81AE36E0E0BE07E0E08E07B1
:10012600E0E09E0768F0A130E2ECBE07E1E08E0752
:10013600E0E09E0728F4AA81A53010F0A93008F067
:1001460023C0E0E2EBB9E8E1EAB9AA81A550EA2FBB
:10015600EE0FE068E0BDEB81FC816D817E81A0E160
:10016600B0E080E090E00E942101A0E0B0E488E3E6
:1001760090E00E944101E150F040604070408F01E4
:10018600E12FF070E0BD09B919810881279608951D
:100196005F9BFECFECB108955D9BFECFE881ECB985
:1001A60021960895A881B981EC91E03041F0EA9357
:1001B600F3DFE881F9813196E883F983F3CF22965C
:1001C60008952797EF81F885FA93EA93FE01329610
:1001D600FA93EA930E94F500FE01FA93EA93E2DFAE
:1001E60029960895A991B991E991F99130962AF441
:1001F600E095F09531966DE26D93E89480E197E293
:100206000DD088EE93E00AD084E6992707D08AE0DD
:1002160005D06E2F10D066276C9308956627E817D1
:10022600F90720F06395E81BF90BC9F7662311F46B
:1002360016F008956894605D6D9308957A9F702D09
:100246006B9F700DF89F700DE99F700D6A9F602D72
:10025600710DFB9F600D711DE89F600D711D882754
:10026600FA9FF02D610D781FEB9FF00D611D781F31
:10027600EA9FE02DF10D681F781F08953F934F9375
:100286005F93002411244427552730E2AA0FBB1F91
:10029600881F991F001C111C441F551F0E1A1F0A88
:1002A600460B570B28F40E0E1F1E461F571F01C084
:1002B600A1603A9559F7FD01BC01D001CA015F91D1
:1002C6004F913F9108957A936A93FA93EA9308952A
:00000001FF
